S01300004261736550726F6A6563742E73726563BF
S1130000E0140020410900003F0900003F090000FE
S11300103F0900003F0900003F0900000000000004
S11300200000000000000000000000003F09000084
S11300303F090000000000003F0900003F090000E4
S11300403F0900003F0900003F0900003F0900008C
S11300503F0900003F0900003F0900003F0900007C
S11300603F0900003F0900003F0900003F0900006C
S11300703F0900003F0900003F0900003F0900005C
S11300803F0900003F0900003F0900003F0900004C
S11300903F0900003F0900003F0900003F0900003C
S11300A03F09000059080000690800007D080000AD
S11300B091080000A5080000B5080000C908000068
S11300C0DD080000F1080000010900001509000026
S11300D0290900003F0900003F0900003F09000012
S11300E03F0900003F0900003F0900003F090000EC
S11300F03F0900003F0900003F0900003F090000DC
S11301003F0900003F0900003F0900003F090000CB
S11301103F0900003F0900003F0900003F090000BB
S11301203F0900003F0900003F0900003F090000AB
S11301303F0900003F0900003F0900003F0900009B
S11301403F0900003F0900003F0900003F0900008B
S11301503F0900003F0900003F0900003F0900007B
S11301603F0900003F0900003F0900003F0900006B
S11301703F0900003F0900003F0900003F0900005B
S113018010B5054C237833B9044B13B10448AFF3CD
S113019000800123237010BD6C04002000000000C7
S11301A0A00B00000C4B43B10C480D4910B5AFF344
S11301B000800C48036823B910BD0A48036833B9AA
S11301C07047094B002BF7D0BDE810401847064B89
S11301D0002BF5D0184700BF00000000A00B000062
S11301E070040020A00B00000000000070B483B075
S11301F0EFF31083B3FA83F35B09019372B6BFF391
S11302005F8F00220E4B1A70019D83000D4C54F831
S11302102060012202FA01F13143203303F47F7399
S113022043F02A43084A936544F820102DB1012273
S1130230034B1A70BFF35F8F62B603B070BC704794
S11302403800002020000E4000000E4030B583B07E
S11302500446EFF31083B3FA83F35B09019372B698
S1130260BFF35F8F00220C4B1A70019D0B4B9B6AEE
S113027063B12DB10122084B1A70BFF35F8F62B6D0
S113028021460220064B984703B030BD05210120CA
S1130290034B9847EDE700BF3800002000000E40F4
S11302A0ED01000030B583B00446EFF31083B3FAD8
S11302B083F35B09019372B6BFF35F8F00220C4B8B
S11302C01A70019D0B4BDB6A63B12DB10122084BFF
S11302D01A70BFF35F8F62B621460320064B98471E
S11302E003B030BD06210120034B9847EDE700BF62
S11302F03800002000000E40ED01000008B5AE4BB0
S1130300984200F0A08124D9AC4B984200F0C381FC
S113031000F2E680A3F57C33984200F0A48140F219
S1130320B080A74B984200F0AA8100F2CB80A3F5DD
S11303304053984200F09B8103F50053984240F0EB
S1130340C080042101209F4B984704209E4B98476E
S113035008BDA3F5A023984200F0228116D99B4B37
S1130360984200F060815BD9994B984200F0638118
S11303707AD8A3F50043984200F0598103F58043ED
S1130380984270D11020934B984708BDA3F5803351
S1130390984200F0F98021D8A3F58033984200F008
S11303A0E48012D98C4B984200F0E38003F580433B
S11303B0984212D10320874B9847804B1A6C42F025
S11303C05502864999651A6408BDB0F1402F03D1DE
S11303D00020804B984708BD08BD08BD804B98425B
S11303E000F0D68012D97F4B984200F0D58003F5F7
S11303F0F843984213D10820764B98476F4B1A6CF8
S113040042F00402754999651A6408BDA3F5705356
S1130410984203D105206F4B984708BD08BD08BD1D
S1130420A3F58033984200F0EF800BD96E4B9842CD
S113043000F0F58003F58043984213D10D20654BFD
S1130440984708BDA3F5804398420AD10A20614B1E
S113045098475A4B1A6C42F00402604999651A6431
S113046008BD08BD08BD08BD604B984200F0E78098
S113047003F58043984203D11320564B984708BD97
S113048008BDA3F50433984200F0E1800FD9584B1E
S1130490984200F0E08003F58063984210D1022175
S11304A00120484B98470120474B984708BDA3F5C6
S11304B08043984203D11620464B984708BD08BD97
S11304C008BD08BD4B4B984200F0E18003F5204382
S11304D0984204D1092101203A4B984708BD08BD30
S11304E0454B984200F0E68012D9444B984200F004
S11304F0EB802CD8A3F50063984200F0E08003F56C
S11305008063984222D1022105202E4B984708BDD2
S1130510A3F57843984200F0C3800CD9384B984235
S113052000F0C38003F5806398420ED1042108468D
S1130530244B984708BDA3F58063984204D1012158
S11305400420204B984708BD08BD08BD08BD2D4BAD
S1130550984200F0BE8003F58063984204D10521DF
S11305600846184B984708BD08BD0120194B984709
S113057008BD0220174B9847104B1A6C42F05502E5
S1130580164999651A6408BD0420124B984708BDA2
S11305900620104B984708BD07200E4B984708BD0E
S11305A009200C4B9847054B1A6C42F004020B4986
S11305B099651A6408BD00BF0080074000000E4022
S11305C000500A40ED010000A502000000000440B4
S11305D0008006404D02000000000140400000AAD7
S11305E000C0014000C401400080034000C0064038
S11305F000000A4000600A4000000F40000C0F4059
S1130600000C0E4000100F400B20344B9847344B25
S11306101A6C42F00402334999651A6408BD0C202F
S11306202E4B984708BD0E202C4B984708BD0F2031
S11306302A4B984708BD1120284B984708BD122023
S1130640264B984708BD1520244B984708BD172012
S1130650224B984708BD01210846234B98470020A8
S1130660224B984708BD0220204B984708BD002123
S113067001201D4B984703201C4B984708BD0321BC
S11306800120194B98470520184B984708BD0620B0
S1130690164B984708BD00210420134B984708BD0A
S11306A002210420104B984708BD032104200E4B5F
S11306B0984708BD002105200B4B984708BD012130
S11306C00520094B984708BD03210520064B984790
S11306D008BD04210520044B984708BD4D020000C5
S11306E000000E40400000AAED010000A502000039
S11306F030B583B0164C2046164B98470123A360AF
S11307002246D36813F0010FFBD0134A012113488A
S1130710134B9847114D134C2846A04710F0010F76
S1130720FAD0EFF31083B3FA83F35B09019372B643
S1130730BFF35F8F00220C4B1A70019B2BB1012277
S1130740094B1A70BFF35F8F62B603B030BD00BFB0
S113075000040A40FD02000080A9030000000F40CD
S11307606D070000E1070000380000202DE9F04388
S113077083B0C36923F0030EEFF31083B3FA83F35A
S11307805B09019372B6BFF35F8F0025114B1D7097
S1130790019E114CD4F808802768D4F80490626054
S11307A00523236001F0030141F00C0141EA0E012D
S11307B00A4B98472560C4F80490C4F80880276061
S11307C02EB10122034B1A70BFF35F8F62B603B0E0
S11307D0BDE8F0833800002010E000E00D000020A8
S11307E0406970472DE9F04F83B00191470207F14A
S11307F0804707F56127D7F8D0A0154B1B68FBB1DC
S11308000646144D0024A9464FF0010BDFF8408042
S113081005E001340835D8F80030A34210D959F85E
S11308203430B6EB531FF4D103F01F030BFA03F378
S113083013EA0A0FEDD06B68002BEAD09847E8E77B
S1130840019B0AEA0303C7F8D83003B0BDE8F08F70
S1130850B80400208804002008B5FF210020014BC3
S1130860984708BDE507000008B54FF47F41002014
S1130870014B984708BD00BFE507000008B54FF4D9
S11308807F010020014B984708BD00BFE507000029
S113089008B54FF07F410020014B984708BD00BFC9
S11308A0E507000008B5FF210120014B984708BD6A
S11308B0E507000008B54FF47F410120014B98473C
S11308C008BD00BFE507000008B54FF47F01012013
S11308D0014B984708BD00BFE507000008B54FF07D
S11308E07F410120014B984708BD00BFE507000088
S11308F008B5FF210220014B984708BDE507000019
S113090008B54FF47F410220014B984708BD00BF52
S1130910E507000008B54FF47F010220014B98471A
S113092008BD00BFE507000008B54FF07F41022075
S1130930014B984708BD00BFE50700007047FEE77C
S113094008B5174B174A9A4210D0174B144A9A42CB
S11309500CD2013B9B1A23F00303043313441149C3
S113096051F8040B42F8040B9A42F9D10F4B104A88
S11309709A420AD2013B9B1A23F003030433134423
S1130980002142F8041B9342FBD10A4A0A4B23F08C
S11309907F039360094B9847094B9847FEE700BFD4
S11309A000000020A00B00006C040020E0040020E4
S11309B06C04002000ED00E000000000090A0000C3
S11309C0C509000080B50A4B98470A4B98470A4866
S11309D00A4B98470A4B80225A64C3F868211F4681
S11309E0164641F20C05074CFE652846A047FBE776
S11309F0F10600003D09000000100E40FD02000059
S1130A0000140E400100002070B50F4E0F4D761BF0
S1130A10B61018BF002405D0013455F8043B98479C
S1130A20A642F9D10A4E0B4D761B00F0A7F8B6107A
S1130A3018BF002406D0013455F8043B9847A64259
S1130A40F9D170BD70BD00BF880B0000880B000099
S1130A50900B0000880B0000024B13B1024800F019
S1130A6005B8704700000000790A00000023014621
S1130A701A46184600F01EB838B50A4C0A4D641BD5
S1130A80A4100AD004F18043013B05EB8305013C2B
S1130A9055F804399847002CF9D1BDE8384000F0E6
S1130AA077B800BFA00B00009C0B0000704700BF8C
S1130AB0704700BF2DE9F8432C4D06462868984638
S1130AC00F469146FFF7F2FF294B1C68D4F84831D2
S1130AD0002B3ED05A681F2A1CDC02F1010E76B1AD
S1130AE003EB82010124C1F88890D3F88801944073
S1130AF02043022EC3F88801C1F8088123D00232B2
S1130B00C3F804E0286843F82270FFF7D1FF0020FF
S1130B10BDE8F883174B0BB34FF4C870AFF30080F4
S1130B200346D8B1D4F848210260002141600A4646
S1130B30C4F848014FF0010EC0F88811C0F88C11B8
S1130B40002EDCD0CCE7D3F88C110C43C3F88C41D5
S1130B50D5E704F5A673C4F84831BBE72868FFF766
S1130B60A7FF4FF0FF30BDE8F88300BF6804002002
S1130B70780B00000000000040000020F8B500BF22
S1130B80F8BC08BC9E467047590A0000A501000045
S1130B90F8B500BFF8BC08BC9E4670478101000050
S1130BA0BFF35F8F0138FBD170470000074A084B41
S1130BB09A61C1611946074A4869136803F480338E
S1130BC010F0010001D1002BF6D070471C0000AAE0
S1130BD000000F4010E000E00100000000000000F1
S1130BE0000000002C03002094030020FC030020DC
S1130BF000000000000000000000000000000000F1
S1130C0000000000000000000000000000000000E0
S1130C1000000000000000000000000000000000D0
S1130C2000000000000000000000000000000000C0
S1130C3000000000000000000000000000000000B0
S1130C4000000000000000000000000000000000A0
S1130C500000000000000000000000000000000090
S1130C600000000000000000000000000000000080
S1130C700000000000000000000000000000000070
S1130C80000000000000000001000000000000005F
S1130C900E33CDAB34126DE6ECDE05000B00000024
S1130CA00000000000000000000000000000000040
S1130CB00000000000000000000000000000000030
S1130CC00000000000000000000000000000000020
S1130CD00000000000000000000000000000000010
S10F10000000000000000000BC04002000
S9030941B2
