S01300004261736550726F6A6563742E73726563BF
S1130000E0140020090E0000070E0000070E000097
S1130010070E0000070E0000070E0000000000009D
S1130020000000000000000000000000070E0000B7
S1130030070E000000000000070E0000070E00007D
S1130040070E0000070E0000070E0000070E000058
S1130050070E0000070E0000070E0000070E000048
S1130060070E0000070E0000070E0000070E000038
S1130070070E0000070E0000070E0000070E000028
S1130080070E0000070E0000070E0000070E000018
S1130090070E0000070E0000070E0000070E000008
S11300A0070E0000210D0000310D0000450D000079
S11300B0590D00006D0D00007D0D0000910D000034
S11300C0A50D0000B90D0000C90D0000DD0D0000F4
S11300D0F10D0000070E0000070E0000070E0000DF
S11300E0070E0000070E0000070E0000070E0000B8
S11300F0070E0000070E0000070E0000070E0000A8
S1130100070E0000070E0000070E0000070E000097
S1130110070E0000070E0000070E0000070E000087
S1130120070E0000070E0000070E0000070E000077
S1130130070E0000070E0000070E0000070E000067
S1130140070E0000070E00008D0E0000070E0000D1
S1130150070E0000070E0000070E0000070E000047
S1130160070E0000070E0000070E0000070E000037
S1130170070E0000070E0000070E0000070E000027
S113018010B5054C237833B9044B13B10448AFF3CD
S113019000800123237010BD6404002000000000CF
S11301A0B81100000C4B43B10C480D4910B5AFF326
S11301B000800C48036823B910BD0A48036833B9AA
S11301C07047094B002BF7D0BDE810401847064B89
S11301D0002BF5D0184700BF00000000B811000044
S11301E068040020B81100000000000010B40B01E6
S11301F0934214D9C9004B0803EBC202B2FBF1F2DB
S1130200D3085C1E4FF6FE718C4201D9012017E021
S1130210416841F4002141600CE0012010E05908DC
S113022001EBC202B2FBF3F2D3085C1E4FF6FE717F
S11302308C42F2D8120402F4E0221A430262002033
S113024010BC70470A4BC0F8E4300023436043629B
S1130250836288230360242303604FF48073036064
S11302604FF4002303604FF400330360704700BF72
S11302700041535570B505460C4616460F4B98473A
S113028000220F4B1A60A4B13246216828460D4B58
S11302909847024678B96368A1680B4321690B4308
S11302A0E1680B4306490B6069680B436B601046B9
S11302B070BD0122FBE70122F9E700BF45020000FF
S11302C080040020ED0100004023036070471023E8
S11302D0036070478160704740697047436913F059
S11302E0020FFBD0C1F30801C16100207047000078
S11302F070B50C46097839B10546044E2846B04716
S113030014F8011F0029F9D170BD00BFDD020000FF
S1130310436913F0010F05D08369C3F308030B602D
S1130320002070470120704782B0EFF31083B3FAC6
S113033083F35B09019372B6BFF35F8F0022084B0E
S11303401A70019A074B08499961084919622AB140
S11303500122034B1A70BFF35F8F62B602B070477D
S11303603000002000080E40200000AA070301000E
S113037070B483B0EFF31083B3FA83F35B09019392
S113038072B6BFF35F8F00220E4B1A70019D83007B
S11303900D4C54F82060012202FA01F1314320335C
S11303A003F47F7343F02A43084A936544F820100A
S11303B02DB10122034B1A70BFF35F8F62B603B0F5
S11303C070BC70473000002020000E4000000E403A
S11303D030B583B00446EFF31083B3FA83F35B09BB
S11303E0019372B6BFF35F8F00220C4B1A70019D0C
S11303F00B4B9B6A63B12DB10122084B1A70BFF3FA
S11304005F8F62B621460220064B984703B030BD89
S113041005210120034B9847EDE700BF3000002081
S113042000000E407103000030B583B00446EFF3C2
S11304301083B3FA83F35B09019372B6BFF35F8F42
S113044000220C4B1A70019D0B4BDB6A63B12DB17A
S11304500122084B1A70BFF35F8F62B62146032056
S1130460064B984703B030BD06210120034B984743
S1130470EDE700BF3000002000000E4071030000D3
S11304805A4B984227D058D8A3F5A023984222D09B
S113049010D9574B98421ED035D9564B98421AD092
S11304A043D8A3F50043984215D003F580439842FE
S11304B016D110E0A3F5803398420CD012D8A3F5DE
S11304C08033984207D008D94B4B984203D003F5A8
S11304D08043984204D149487047B0F1402FFAD084
S11304E000207047464B9842F5D007D9454B9842B7
S11304F0F1D003F5F8439842F2D1ECE7A3F5705339
S11305009842EDD1E7E7A3F580339842E3D007D9C9
S11305103D4B9842DFD003F580439842E0D1DAE7BF
S1130520A3F580439842DBD1D5E7384B9842D2D02B
S113053003F580439842D3D1CDE7354B9842CAD0D6
S113054010D9344B9842C6D034D9334B9842C2D0D8
S113055042D8A3F500639842BDD003F58063984266
S1130560BED1B8E7A3F57C339842B4D011D8A3F533
S113057004339842AFD007D9284B9842ABD003F547
S113058080639842ACD1A6E7A3F580439842A7D1F3
S1130590A1E7234B98429ED007D9224B98429AD088
S11305A003F5805398429BD195E7A3F500539842F5
S11305B096D190E7A3F5784398428CD007D91A4B8B
S11305C0984288D003F58063984289D183E7A3F5E4
S11305D08063984284D17EE7144B98423FF47BAF0A
S11305E003F5806398427FF47BAF74E70080074093
S11305F0000004400080064000000140001BB700DA
S113060000C0014000C401400080034000C0064017
S113061000000E4000000F40000C0F4000000A4094
S113062000400A4000500A40000C0E4000100F40E9
S113063008B5AE4B984200F0A08124D9AC4B984247
S113064000F0C38100F2E680A3F57C33984200F009
S1130650A48140F2B080A74B984200F0AA8100F236
S1130660CB80A3F54053984200F09B8103F50053DF
S1130670984240F0C080042101209F4B98470420F9
S11306809E4B984708BDA3F5A023984200F0228111
S113069016D99B4B984200F060815BD9994B9842E4
S11306A000F063817AD8A3F50043984200F05981A1
S11306B003F58043984270D11020934B984708BDAE
S11306C0A3F58033984200F0F98021D8A3F5803354
S11306D0984200F0E48012D98C4B984200F0E380F9
S11306E003F58043984212D10320874B9847804BEF
S11306F01A6C42F05502864999651A6408BDB0F136
S1130700402F03D10020804B984708BD08BD08BD89
S1130710804B984200F0D68012D97F4B984200F06B
S1130720D58003F5F843984213D10820764B9847B7
S11307306F4B1A6C42F00402754999651A6408BD3E
S1130740A3F57053984203D105206F4B984708BD19
S113075008BD08BDA3F58033984200F0EF800BD9A3
S11307606E4B984200F0F58003F58043984213D114
S11307700D20654B984708BDA3F5804398420AD1E4
S11307800A20614B98475A4B1A6C42F004026049A4
S113079099651A6408BD08BD08BD08BD604B984240
S11307A000F0E78003F58043984203D11320564BB1
S11307B0984708BD08BDA3F50433984200F0E180D2
S11307C00FD9584B984200F0E08003F580639842BB
S11307D010D102210120484B98470120474B9847EC
S11307E008BDA3F58043984203D11620464B984791
S11307F008BD08BD08BD08BD4B4B984200F0E18020
S113080003F52043984204D1092101203A4B98472B
S113081008BD08BD454B984200F0E68012D9444B10
S1130820984200F0EB802CD8A3F50063984200F0C6
S1130830E08003F58063984222D1022105202E4BEB
S1130840984708BDA3F57843984200F0C3800CD9BB
S1130850384B984200F0C38003F5806398420ED170
S113086004210846244B984708BDA3F580639842A9
S113087004D101210420204B984708BD08BD08BDC0
S113088008BD2D4B984200F0BE8003F5806398426A
S113089004D105210846184B984708BD08BD01201E
S11308A0194B984708BD0220174B9847104B1A6CF8
S11308B042F05502164999651A6408BD0420124B8A
S11308C0984708BD0620104B984708BD07200E4BDB
S11308D0984708BD09200C4B9847054B1A6C42F009
S11308E004020B4999651A6408BD00BF00800740E3
S11308F000000E4000500A4071030000290400006B
S11309000000044000800640D103000000000140C4
S1130910400000AA00C0014000C401400080034020
S113092000C0064000000A4000600A4000000F407A
S1130930000C0F40000C0E4000100F400B20344BF5
S11309409847344B1A6C42F00402334999651A648F
S113095008BD0C202E4B984708BD0E202C4B984701
S113096008BD0F202A4B984708BD1120284B9847F3
S113097008BD1220264B984708BD1520244B9847E4
S113098008BD1720224B984708BD01210846234B78
S113099098470020224B984708BD0220204B9847D7
S11309A008BD002101201D4B984703201C4B98478C
S11309B008BD03210120194B98470520184B98477F
S11309C008BD0620164B984708BD00210420134B90
S11309D0984708BD02210420104B984708BD032105
S11309E004200E4B984708BD002105200B4B984767
S11309F008BD01210520094B984708BD03210520A6
S1130A00064B984708BD04210520044B984708BDB0
S1130A10D103000000000E40400000AA7103000052
S1130A202904000082B0EFF31083B3FA83F35B0967
S1130A30019372B6BFF35F8F0022084B1A70019ABC
S1130A40074B4FF02A41996518602AB10122034BE4
S1130A501A70BFF35F8F62B602B070473000002097
S1130A6000000E4030B583B01D4C20461D4B984706
S1130A700123A3602246D36813F0010FFBD01A4B65
S1130A8098471A4A536913F0010FFBD0002211460C
S1130A901748184B98470120174B9847174A0021CD
S1130AA01748184B9847164D174C2846A04710F086
S1130AB0010FFAD0EFF31083B3FA83F35B090193C8
S1130AC072B6BFF35F8F0022104B1A70019B2BB1DB
S1130AD001220E4B1A70BFF35F8F62B603B030BDB4
S1130AE000040A40310600002903000000080E40FB
S1130AF0001BB700190C0000250A000080A90300A0
S1130B0000000F40110B0000850B00003000002096
S1130B102DE9F04383B0C36923F0030EEFF3108390
S1130B20B3FA83F35B09019372B6BFF35F8F0025B9
S1130B30114B1D70019E114CD4F808802768D4F81D
S1130B40049062600523236001F0030141F00C016D
S1130B5041EA0E010A4B98472560C4F80490C4F892
S1130B60088027602EB10122034B1A70BFF35F8FF8
S1130B7062B603B0BDE8F0833000002010E000E06E
S1130B800100002040697047054B1A6822F04002BA
S1130B90002814BF402300231343014A1360704705
S1130BA000000A40024B986800F00100704700BF43
S1130BB000000A4010B5024CA0470028FCD010BD2C
S1130BC0A50B000038B505460C46104B1B6898472A
S1130BD00F4B5B68002C12DB240224F07F4424F0CA
S1130BE0FF0445F025452C43094B5C609B6803F0EA
S1130BF00C03084A1360054B1B68984738BD23F063
S1130C003F0444F025442C43EEE700BF2C000020B1
S1130C1000000A408404002008B500292DD11D4B92
S1130C20984214D91C4B984208D801201B4B984772
S1130C304FF0FF3111201A4B984708BD0120174B84
S1130C4098474FF0FF311020154B984708BD12B15B
S1130C50144B984208D90020104B98474FF0FF31AD
S1130C6011200F4B984708BD01200C4B98474FF0BB
S1130C70FF3111200A4B984708BD0B4B98428CBF9B
S1130C8001200020054B98474FF0FF311120044B01
S1130C90984708BD80A8120100512502890B000065
S1130CA0C50B0000001BB70000127A002DE9F04FBD
S1130CB083B00191470207F1804707F56127D7F810
S1130CC0D0A0154B1B68FBB10646144D0024A94661
S1130CD04FF0010BDFF8408005E001340835D8F807
S1130CE00030A34210D959F83430B6EB531FF4D175
S1130CF003F01F030BFA03F313EA0A0FEDD06B683A
S1130D00002BEAD09847E8E7019B0AEA0303C7F8F7
S1130D10D83003B0BDE8F08FB80400208804002068
S1130D2008B5FF210020014B984708BDAD0C000019
S1130D3008B54FF47F410020014B984708BD00BF20
S1130D40AD0C000008B54FF47F010020014B98471B
S1130D5008BD00BFAD0C000008B54FF07F41002076
S1130D60014B984708BD00BFAD0C000008B5FF213A
S1130D700120014B984708BDAD0C000008B54FF4A5
S1130D807F410120014B984708BD00BFAD0C000016
S1130D9008B54FF47F010120014B984708BD00BFFF
S1130DA0AD0C000008B54FF07F410120014B98477E
S1130DB008BD00BFAD0C000008B5FF210220014BA7
S1130DC0984708BDAD0C000008B54FF47F410220E0
S1130DD0014B984708BD00BFAD0C000008B54FF4A7
S1130DE07F010220014B984708BD00BFAD0C0000F5
S1130DF008B54FF07F410220014B984708BD00BF62
S1130E00AD0C00007047FEE708B5174B174A9A422D
S1130E1010D0174B144A9A420CD2013B9B1A23F070
S1130E20030304331344114951F8040B42F8040B2F
S1130E309A42F9D10F4B104A9A420AD2013B9B1AAB
S1130E4023F0030304331344002142F8041B9342A8
S1130E50FBD10A4A0A4B23F07F039360094B98475E
S1130E60094B9847FEE700BF00000020B8110000BE
S1130E7064040020E00400206404002000ED00E08D
S1130E80000000000D100000C90E000010B582B073
S1130E900848094B984710F0010F01D102B010BD6A
S1130EA0044C01A92046054B984705492046054BAB
S1130EB09847F3E700800240D902000011030000C4
S1130EC07C110000F10200002DE9804887B0404BFE
S1130ED09847404B98474048404EB047404B4FF0EE
S1130EE080629A67C3F88820C3F8C820C3F8082131
S1130EF09A619A629A639A604FF000629A67C3F8A3
S1130F008820C3F8C820C3F808219A619A629A63BA
S1130F109A60A3F5007301249C67C3F88840C3F862
S1130F20C840C3F808415C619C629C639C600222D7
S1130F309A67C3F88820C3F8C820C3F808215A6107
S1130F409A629A639A604FF4E13300934FF0C00BB6
S1130F50CDF804B04FF4006ACDF808A0002503953D
S1130F6004952048B0471F48DFF89890C8470246C8
S1130F7069461C481C4B98471A481C4FB8471948E7
S1130F80DFF88480C0474FF416530093CDF804B0C3
S1130F90CDF808A003950495154D2846B04728467A
S1130FA0C8470246694628460F4B98472846B84723
S1130FB02846C04721460B480E4B984704220E4B47
S1130FC09A600E4E0E4C31462846A047FBE700BF00
S1130FD0650A0000050E000000100E4031060000F6
S1130FE000140E400080024075020000C902000097
S1130FF000400240D502000000E100E0841100003E
S1131000F102000081040000CF02000070B50F4E11
S11310100F4D761BB61018BF002405D0013455F8C7
S1131020043B9847A642F9D10A4E0B4D761B00F0BB
S1131030B1F8B61018BF002406D0013455F8043BAB
S11310409847A642F9D170BD70BD00BFA011000041
S1131050A0110000A8110000A0110000024B13B160
S1131060024800F005B87047000000007D10000041
S1131070002301461A46184600F01EB838B50A4C3B
S11310800A4D641BA4100AD004F18043013B05EB14
S11310908305013C55F804399847002CF9D1BDE883
S11310A0384000F081B800BFB8110000B41100004E
S11310B0704700BF704700BF2DE9F8432C4D06462A
S11310C0286898460F469146FFF7F2FF294B1C68A3
S11310D0D4F84831002B3ED05A681F2A1CDC02F198
S11310E0010E76B103EB82010124C1F88890D3F894
S11310F0880194402043022EC3F88801C1F8088176
S113110023D00232C3F804E0286843F82270FFF7C2
S1131110D1FF0020BDE8F883174B0BB34FF4C87020
S1131120AFF300800346D8B1D4F84821026000210F
S113113041600A46C4F848014FF0010EC0F8881116
S1131140C0F88C11002EDCD0CCE7D3F88C110C4302
S1131150C3F88C41D5E704F5A673C4F84831BBE75E
S11311602868FFF7A7FF4FF0FF30BDE8F88300BF02
S113117060040020901100000000000048454C4C21
S11311804F000000746F2061726475696E6F000017
S113119038000020F8B500BFF8BC08BC9E46704774
S11311A05D100000A5010000F8B500BFF8BC08BC44
S10B11B09E4670478101000016
S11311B8074A084B9A61C1611946074A4869136886
S11311C803F4803310F0010001D1002BF6D07047EE
S11311D81C0000AA00000F4010E000E0B50B00005E
S11311E801000000000000000000000024030020AB
S11311F88C030020F403002000000000000000001D
S113120800000000000000000000000000000000D2
S113121800000000000000000000000000000000C2
S113122800000000000000000000000000000000B2
S113123800000000000000000000000000000000A2
S11312480000000000000000000000000000000092
S11312580000000000000000000000000000000082
S11312680000000000000000000000000000000072
S11312780000000000000000000000000000000062
S11312880000000000000000000000000000000052
S113129801000000000000000E33CDAB34126DE6EF
S11312A8ECDE05000B000000000000000000000058
S11312B80000000000000000000000000000000022
S11312C80000000000000000000000000000000012
S11312D80000000000000000000000000000000002
S11312E800000000000000000000000000000000F2
S1071618BC040020EA
S9030E09E5
